{
  "_format": "hh-sol-artifact-1",
  "contractName": "CrowdFunding",
  "sourceName": "contracts/crowdfunding.sol",
  "abi": [
    {
      "inputs": [],
      "stateMutability": "nonpayable",
      "type": "constructor"
    },
    {
      "anonymous": false,
      "inputs": [
        {
          "indexed": true,
          "internalType": "uint256",
          "name": "id",
          "type": "uint256"
        },
        {
          "indexed": true,
          "internalType": "address",
          "name": "creator",
          "type": "address"
        }
      ],
      "name": "CampaignCreated",
      "type": "event"
    },
    {
      "anonymous": false,
      "inputs": [
        {
          "indexed": true,
          "internalType": "uint256",
          "name": "id",
          "type": "uint256"
        }
      ],
      "name": "CampaignDeleted",
      "type": "event"
    },
    {
      "anonymous": false,
      "inputs": [
        {
          "indexed": true,
          "internalType": "uint256",
          "name": "id",
          "type": "uint256"
        },
        {
          "indexed": true,
          "internalType": "address",
          "name": "contributor",
          "type": "address"
        },
        {
          "indexed": false,
          "internalType": "uint256",
          "name": "amount",
          "type": "uint256"
        }
      ],
      "name": "ContributionMade",
      "type": "event"
    },
    {
      "anonymous": false,
      "inputs": [
        {
          "indexed": true,
          "internalType": "uint256",
          "name": "id",
          "type": "uint256"
        },
        {
          "indexed": true,
          "internalType": "address",
          "name": "user",
          "type": "address"
        },
        {
          "indexed": false,
          "internalType": "uint256",
          "name": "amount",
          "type": "uint256"
        }
      ],
      "name": "FundsWithdrawn",
      "type": "event"
    },
    {
      "inputs": [
        {
          "internalType": "uint256",
          "name": "",
          "type": "uint256"
        }
      ],
      "name": "campaigns",
      "outputs": [
        {
          "internalType": "uint256",
          "name": "id",
          "type": "uint256"
        },
        {
          "internalType": "address",
          "name": "creator",
          "type": "address"
        },
        {
          "internalType": "string",
          "name": "title",
          "type": "string"
        },
        {
          "internalType": "string",
          "name": "description",
          "type": "string"
        },
        {
          "internalType": "string",
          "name": "imageURI",
          "type": "string"
        },
        {
          "internalType": "uint256",
          "name": "goal",
          "type": "uint256"
        },
        {
          "internalType": "uint256",
          "name": "startsAt",
          "type": "uint256"
        },
        {
          "internalType": "uint256",
          "name": "endsAt",
          "type": "uint256"
        },
        {
          "internalType": "enum CrowdFunding.STATUS",
          "name": "status",
          "type": "uint8"
        },
        {
          "internalType": "uint256",
          "name": "totalRaised",
          "type": "uint256"
        }
      ],
      "stateMutability": "view",
      "type": "function"
    },
    {
      "inputs": [
        {
          "internalType": "uint256",
          "name": "campaignId",
          "type": "uint256"
        }
      ],
      "name": "contribute",
      "outputs": [],
      "stateMutability": "payable",
      "type": "function"
    },
    {
      "inputs": [
        {
          "internalType": "uint256",
          "name": "",
          "type": "uint256"
        },
        {
          "internalType": "address",
          "name": "",
          "type": "address"
        }
      ],
      "name": "contributions",
      "outputs": [
        {
          "internalType": "uint256",
          "name": "",
          "type": "uint256"
        }
      ],
      "stateMutability": "view",
      "type": "function"
    },
    {
      "inputs": [
        {
          "internalType": "string",
          "name": "title",
          "type": "string"
        },
        {
          "internalType": "string",
          "name": "description",
          "type": "string"
        },
        {
          "internalType": "string",
          "name": "imageURI",
          "type": "string"
        },
        {
          "internalType": "uint256",
          "name": "goal",
          "type": "uint256"
        },
        {
          "internalType": "uint256",
          "name": "endsAt",
          "type": "uint256"
        }
      ],
      "name": "createCampaign",
      "outputs": [],
      "stateMutability": "nonpayable",
      "type": "function"
    },
    {
      "inputs": [],
      "name": "currentTime",
      "outputs": [
        {
          "internalType": "uint256",
          "name": "",
          "type": "uint256"
        }
      ],
      "stateMutability": "view",
      "type": "function"
    },
    {
      "inputs": [
        {
          "internalType": "uint256",
          "name": "campaignId",
          "type": "uint256"
        }
      ],
      "name": "deleteCampaign",
      "outputs": [],
      "stateMutability": "nonpayable",
      "type": "function"
    },
    {
      "inputs": [],
      "name": "getAllCampaigns",
      "outputs": [
        {
          "components": [
            {
              "internalType": "uint256",
              "name": "id",
              "type": "uint256"
            },
            {
              "internalType": "address",
              "name": "creator",
              "type": "address"
            },
            {
              "internalType": "string",
              "name": "title",
              "type": "string"
            },
            {
              "internalType": "string",
              "name": "description",
              "type": "string"
            },
            {
              "internalType": "string",
              "name": "imageURI",
              "type": "string"
            },
            {
              "internalType": "uint256",
              "name": "goal",
              "type": "uint256"
            },
            {
              "internalType": "uint256",
              "name": "startsAt",
              "type": "uint256"
            },
            {
              "internalType": "uint256",
              "name": "endsAt",
              "type": "uint256"
            },
            {
              "internalType": "enum CrowdFunding.STATUS",
              "name": "status",
              "type": "uint8"
            },
            {
              "internalType": "uint256",
              "name": "totalRaised",
              "type": "uint256"
            }
          ],
          "internalType": "struct CrowdFunding.Campaign[]",
          "name": "",
          "type": "tuple[]"
        }
      ],
      "stateMutability": "view",
      "type": "function"
    },
    {
      "inputs": [],
      "name": "getLatestCampaigns",
      "outputs": [
        {
          "components": [
            {
              "internalType": "uint256",
              "name": "id",
              "type": "uint256"
            },
            {
              "internalType": "address",
              "name": "creator",
              "type": "address"
            },
            {
              "internalType": "string",
              "name": "title",
              "type": "string"
            },
            {
              "internalType": "string",
              "name": "description",
              "type": "string"
            },
            {
              "internalType": "string",
              "name": "imageURI",
              "type": "string"
            },
            {
              "internalType": "uint256",
              "name": "goal",
              "type": "uint256"
            },
            {
              "internalType": "uint256",
              "name": "startsAt",
              "type": "uint256"
            },
            {
              "internalType": "uint256",
              "name": "endsAt",
              "type": "uint256"
            },
            {
              "internalType": "enum CrowdFunding.STATUS",
              "name": "status",
              "type": "uint8"
            },
            {
              "internalType": "uint256",
              "name": "totalRaised",
              "type": "uint256"
            }
          ],
          "internalType": "struct CrowdFunding.Campaign[]",
          "name": "latest",
          "type": "tuple[]"
        }
      ],
      "stateMutability": "view",
      "type": "function"
    },
    {
      "inputs": [],
      "name": "owner",
      "outputs": [
        {
          "internalType": "address",
          "name": "",
          "type": "address"
        }
      ],
      "stateMutability": "view",
      "type": "function"
    },
    {
      "inputs": [
        {
          "internalType": "uint256",
          "name": "campaignId",
          "type": "uint256"
        }
      ],
      "name": "withdraw",
      "outputs": [],
      "stateMutability": "nonpayable",
      "type": "function"
    }
  ],
  "bytecode": "0x60a0604052600160005534801561001557600080fd5b50336080526080516119ab610035600039600061019101526119ab6000f3fe6080604052600436106100915760003560e01c80638da5cb5b116100595780638da5cb5b1461017f578063980f2e66146101cb578063b4d40af1146101eb578063c1cbbca714610200578063d18e81b31461021357600080fd5b8063141961bc146100965780632e1a7d4d146100d55780633d891f59146100f7578063759701931461013d57806386cdf6041461015d575b600080fd5b3480156100a257600080fd5b506100b66100b136600461144f565b610226565b6040516100cc9a999897969594939291906114e6565b60405180910390f35b3480156100e157600080fd5b506100f56100f036600461144f565b61042e565b005b34801561010357600080fd5b5061012f610112366004611572565b600360209081526000928352604080842090915290825290205481565b6040519081526020016100cc565b34801561014957600080fd5b506100f561015836600461144f565b6106d1565b34801561016957600080fd5b506101726107e4565b6040516100cc91906115ae565b34801561018b57600080fd5b506101b37f000000000000000000000000000000000000000000000000000000000000000081565b6040516001600160a01b0390911681526020016100cc565b3480156101d757600080fd5b506100f56101e63660046116fc565b610a75565b3480156101f757600080fd5b50610172610dc7565b6100f561020e36600461144f565b611104565b34801561021f57600080fd5b504261012f565b6002818154811061023657600080fd5b60009182526020909120600a90910201805460018201546002830180549294506001600160a01b03909116929161026c906117a5565b80601f0160208091040260200160405190810160405280929190818152602001828054610298906117a5565b80156102e55780601f106102ba576101008083540402835291602001916102e5565b820191906000526020600020905b8154815290600101906020018083116102c857829003601f168201915b5050505050908060030180546102fa906117a5565b80601f0160208091040260200160405190810160405280929190818152602001828054610326906117a5565b80156103735780601f1061034857610100808354040283529160200191610373565b820191906000526020600020905b81548152906001019060200180831161035657829003601f168201915b505050505090806004018054610388906117a5565b80601f01602080910402602001604051908101604052809291908181526020018280546103b4906117a5565b80156104015780601f106103d657610100808354040283529160200191610401565b820191906000526020600020905b8154815290600101906020018083116103e457829003601f168201915b505050506005830154600684015460078501546008860154600990960154949592949193509160ff16908a565b60015460ff161561047b5760405162461bcd60e51b81526020600482015260126024820152711499595b9d1c985b98de48189b1bd8dad95960721b60448201526064015b60405180910390fd5b6001805460ff19168117815560009060029061049790846117f5565b815481106104a7576104a761180e565b60009182526020808320858452600382526040808520338652909252922054600a9091029091019150806105135760405162461bcd60e51b81526020600482015260136024820152724e6f7468696e6720746f20776974686472617760681b6044820152606401610472565b6002600883015460ff16600381111561052e5761052e6114ae565b036105835760018201546001600160a01b0316331461057e5760405162461bcd60e51b815260206004820152600c60248201526b27b7363c9031b932b0ba37b960a11b6044820152606401610472565b6105ea565b6001600883015460ff16600381111561059e5761059e6114ae565b14806105ad5750816007015442115b6105ea5760405162461bcd60e51b815260206004820152600e60248201526d4e6f7420726566756e6461626c6560901b6044820152606401610472565b60008381526003602090815260408083203380855292528083208390555183908381818185875af1925050503d8060008114610642576040519150601f19603f3d011682016040523d82523d6000602084013e610647565b606091505b505090508061068a5760405162461bcd60e51b815260206004820152600f60248201526e15da5d1a191c985dc819985a5b1959608a1b6044820152606401610472565b604051828152339085907ff440aec6b52895984d061d622e6edeba6210f7c3e059be920663140c084560d79060200160405180910390a350506001805460ff191690555050565b600060026106e06001846117f5565b815481106106f0576106f061180e565b60009182526020909120600a9091020160018101549091506001600160a01b0316331461074d5760405162461bcd60e51b815260206004820152600b60248201526a2737ba1031b932b0ba37b960a91b6044820152606401610472565b6000600882015460ff166003811115610768576107686114ae565b146107a65760405162461bcd60e51b815260206004820152600e60248201526d105b1c9958591e4818db1bdcd95960921b6044820152606401610472565b60088101805460ff1916600117905560405182907fa61e586bd6a065bde887af9ec4705829557488d3ccdea823ab66aafd7c3aa09990600090a25050565b60606002805480602002602001604051908101604052809291908181526020016000905b82821015610a6c5760008481526020908190206040805161014081018252600a86029092018054835260018101546001600160a01b0316938301939093526002830180549293929184019161085c906117a5565b80601f0160208091040260200160405190810160405280929190818152602001828054610888906117a5565b80156108d55780601f106108aa576101008083540402835291602001916108d5565b820191906000526020600020905b8154815290600101906020018083116108b857829003601f168201915b505050505081526020016003820180546108ee906117a5565b80601f016020809104026020016040519081016040528092919081815260200182805461091a906117a5565b80156109675780601f1061093c57610100808354040283529160200191610967565b820191906000526020600020905b81548152906001019060200180831161094a57829003601f168201915b50505050508152602001600482018054610980906117a5565b80601f01602080910402602001604051908101604052809291908181526020018280546109ac906117a5565b80156109f95780601f106109ce576101008083540402835291602001916109f9565b820191906000526020600020905b8154815290600101906020018083116109dc57829003601f168201915b5050509183525050600582015460208201526006820154604082015260078201546060820152600882015460809091019060ff166003811115610a3e57610a3e6114ae565b6003811115610a4f57610a4f6114ae565b815260200160098201548152505081526020019060010190610808565b50505050905090565b86610ab05760405162461bcd60e51b815260206004820152600b60248201526a456d707479207469746c6560a81b6044820152606401610472565b84610af15760405162461bcd60e51b815260206004820152601160248201527022b6b83a3c903232b9b1b934b83a34b7b760791b6044820152606401610472565b82610b2c5760405162461bcd60e51b815260206004820152600b60248201526a456d70747920696d61676560a81b6044820152606401610472565b60008211610b6b5760405162461bcd60e51b815260206004820152600c60248201526b125b9d985b1a590819dbd85b60a21b6044820152606401610472565b428111610bad5760405162461bcd60e51b815260206004820152601060248201526f496e76616c696420656e642074696d6560801b6044820152606401610472565b60026040518061014001604052806000548152602001336001600160a01b031681526020018a8a8080601f016020809104026020016040519081016040528093929190818152602001838380828437600092019190915250505090825250604080516020601f8b0181900481028201810190925289815291810191908a908a9081908401838280828437600092019190915250505090825250604080516020601f89018190048102820181019092528781529181019190889088908190840183828082843760009201829052509385525050506020820186905242604083015260608201859052608090910190815260006020918201819052835460018082018655948252908290208351600a909202019081559082015192810180546001600160a01b0319166001600160a01b039094169390931790925560408101519091906002820190610cfd9082611889565b5060608201516003820190610d129082611889565b5060808201516004820190610d279082611889565b5060a0820151600582015560c0820151600682015560e0820151600782015561010082015160088201805460ff19166001836003811115610d6a57610d6a6114ae565b021790555061012091909101516009909101556000805460405133927f633109eec20320eded000fc1e2634211aa7e92ba3f5b15faf6dcdafca05094e491a3600080549080610db883611949565b91905055505050505050505050565b600254606090600060048211610ddd5781610de0565b60045b90508067ffffffffffffffff811115610dfb57610dfb611824565b604051908082528060200260200182016040528015610e3457816020015b610e216113e2565b815260200190600190039081610e195790505b50925060005b818110156110fe57600281610e506001866117f5565b610e5a91906117f5565b81548110610e6a57610e6a61180e565b90600052602060002090600a020160405180610140016040529081600082015481526020016001820160009054906101000a90046001600160a01b03166001600160a01b03166001600160a01b03168152602001600282018054610ecd906117a5565b80601f0160208091040260200160405190810160405280929190818152602001828054610ef9906117a5565b8015610f465780601f10610f1b57610100808354040283529160200191610f46565b820191906000526020600020905b815481529060010190602001808311610f2957829003601f168201915b50505050508152602001600382018054610f5f906117a5565b80601f0160208091040260200160405190810160405280929190818152602001828054610f8b906117a5565b8015610fd85780601f10610fad57610100808354040283529160200191610fd8565b820191906000526020600020905b815481529060010190602001808311610fbb57829003601f168201915b50505050508152602001600482018054610ff1906117a5565b80601f016020809104026020016040519081016040528092919081815260200182805461101d906117a5565b801561106a5780601f1061103f5761010080835404028352916020019161106a565b820191906000526020600020905b81548152906001019060200180831161104d57829003601f168201915b5050509183525050600582015460208201526006820154604082015260078201546060820152600882015460809091019060ff1660038111156110af576110af6114ae565b60038111156110c0576110c06114ae565b81526020016009820154815250508482815181106110e0576110e061180e565b602002602001018190525080806110f690611949565b915050610e3a565b50505090565b60015460ff161561114c5760405162461bcd60e51b81526020600482015260126024820152711499595b9d1c985b98de48189b1bd8dad95960721b6044820152606401610472565b6001805460ff19168117815560009060029061116890846117f5565b815481106111785761117861180e565b600091825260208220600a909102019150600882015460ff1660038111156111a2576111a26114ae565b146111e35760405162461bcd60e51b815260206004820152601160248201527043616d706169676e20696e61637469766560781b6044820152606401610472565b806007015442106112275760405162461bcd60e51b815260206004820152600e60248201526d10d85b5c185a59db88195b99195960921b6044820152606401610472565b6000341161126b5760405162461bcd60e51b81526020600482015260116024820152702d32b9379031b7b73a3934b13aba34b7b760791b6044820152606401610472565b60008160090154826005015461128191906117f5565b905060008134116112925734611294565b815b905060006112a282346117f5565b9050818460090160008282546112b89190611962565b90915550506000858152600360209081526040808320338452909152812080548492906112e6908490611962565b9091555050600584015460098501541061130a5760088401805460ff191660021790555b801561139a57604051600090339083908381818185875af1925050503d8060008114611352576040519150601f19603f3d011682016040523d82523d6000602084013e611357565b606091505b50509050806113985760405162461bcd60e51b815260206004820152600d60248201526c1499599d5b990819985a5b1959609a1b6044820152606401610472565b505b604051828152339086907f0a4a91237423e0a1766a761c7cb029311d8b95d6b1b81db1b949a70c98b4e08e9060200160405180910390a350506001805460ff19169055505050565b6040518061014001604052806000815260200160006001600160a01b0316815260200160608152602001606081526020016060815260200160008152602001600081526020016000815260200160006003811115611442576114426114ae565b8152602001600081525090565b60006020828403121561146157600080fd5b5035919050565b6000815180845260005b8181101561148e57602081850181015186830182015201611472565b506000602082860101526020601f19601f83011685010191505092915050565b634e487b7160e01b600052602160045260246000fd5b600481106114e257634e487b7160e01b600052602160045260246000fd5b9052565b8a81526001600160a01b038a166020820152610140604082018190526000906115118382018c611468565b90508281036060840152611525818b611468565b90508281036080840152611539818a611468565b9150508660a08301528560c08301528460e083015261155c6101008301856114c4565b826101208301529b9a5050505050505050505050565b6000806040838503121561158557600080fd5b8235915060208301356001600160a01b03811681146115a357600080fd5b809150509250929050565b60006020808301818452808551808352604092508286019150828160051b87010184880160005b838110156116a557603f19898403018552815180518452878101516001600160a01b031688850152868101516101408886018190529061161782870182611468565b915050606080830151868303828801526116318382611468565b925050506080808301518683038288015261164c8382611468565b9250505060a080830151818701525060c080830151818701525060e080830151818701525061010080830151611684828801826114c4565b505061012091820151949091019390935293860193908601906001016115d5565b509098975050505050505050565b60008083601f8401126116c557600080fd5b50813567ffffffffffffffff8111156116dd57600080fd5b6020830191508360208285010111156116f557600080fd5b9250929050565b60008060008060008060008060a0898b03121561171857600080fd5b883567ffffffffffffffff8082111561173057600080fd5b61173c8c838d016116b3565b909a50985060208b013591508082111561175557600080fd5b6117618c838d016116b3565b909850965060408b013591508082111561177a57600080fd5b506117878b828c016116b3565b999c989b509699959896976060870135966080013595509350505050565b600181811c908216806117b957607f821691505b6020821081036117d957634e487b7160e01b600052602260045260246000fd5b50919050565b634e487b7160e01b600052601160045260246000fd5b81810381811115611808576118086117df565b92915050565b634e487b7160e01b600052603260045260246000fd5b634e487b7160e01b600052604160045260246000fd5b601f82111561188457600081815260208120601f850160051c810160208610156118615750805b601f850160051c820191505b818110156118805782815560010161186d565b5050505b505050565b815167ffffffffffffffff8111156118a3576118a3611824565b6118b7816118b184546117a5565b8461183a565b602080601f8311600181146118ec57600084156118d45750858301515b600019600386901b1c1916600185901b178555611880565b600085815260208120601f198616915b8281101561191b578886015182559484019460019091019084016118fc565b50858210156119395787850151600019600388901b60f8161c191681555b5050505050600190811b01905550565b60006001820161195b5761195b6117df565b5060010190565b80820180821115611808576118086117df56fea26469706673582212200b32d2cb9c5e064c655bc80c3a3245a1b86036fb0c856e3a8c4b86b5b3939df364736f6c63430008140033",
  "linkReferences": {},
  "deployedLinkReferences": {}
}