{
  "_format": "hh-sol-artifact-1",
  "contractName": "CrowdFunding",
  "sourceName": "contracts/crowdfunding.sol",
  "abi": [
    {
      "inputs": [],
      "stateMutability": "nonpayable",
      "type": "constructor"
    },
    {
      "anonymous": false,
      "inputs": [
        {
          "indexed": true,
          "internalType": "uint256",
          "name": "id",
          "type": "uint256"
        },
        {
          "indexed": true,
          "internalType": "address",
          "name": "creator",
          "type": "address"
        }
      ],
      "name": "CampaignCreated",
      "type": "event"
    },
    {
      "anonymous": false,
      "inputs": [
        {
          "indexed": true,
          "internalType": "uint256",
          "name": "id",
          "type": "uint256"
        }
      ],
      "name": "CampaignDeleted",
      "type": "event"
    },
    {
      "anonymous": false,
      "inputs": [
        {
          "indexed": true,
          "internalType": "uint256",
          "name": "id",
          "type": "uint256"
        },
        {
          "indexed": true,
          "internalType": "address",
          "name": "contributor",
          "type": "address"
        },
        {
          "indexed": false,
          "internalType": "uint256",
          "name": "amount",
          "type": "uint256"
        }
      ],
      "name": "ContributionMade",
      "type": "event"
    },
    {
      "anonymous": false,
      "inputs": [
        {
          "indexed": true,
          "internalType": "uint256",
          "name": "id",
          "type": "uint256"
        },
        {
          "indexed": true,
          "internalType": "address",
          "name": "user",
          "type": "address"
        },
        {
          "indexed": false,
          "internalType": "uint256",
          "name": "amount",
          "type": "uint256"
        }
      ],
      "name": "FundsWithdrawn",
      "type": "event"
    },
    {
      "inputs": [
        {
          "internalType": "uint256",
          "name": "",
          "type": "uint256"
        }
      ],
      "name": "campaigns",
      "outputs": [
        {
          "internalType": "uint256",
          "name": "id",
          "type": "uint256"
        },
        {
          "internalType": "address",
          "name": "creator",
          "type": "address"
        },
        {
          "internalType": "string",
          "name": "title",
          "type": "string"
        },
        {
          "internalType": "string",
          "name": "description",
          "type": "string"
        },
        {
          "internalType": "string",
          "name": "imageURI",
          "type": "string"
        },
        {
          "internalType": "uint256",
          "name": "goal",
          "type": "uint256"
        },
        {
          "internalType": "uint256",
          "name": "startsAt",
          "type": "uint256"
        },
        {
          "internalType": "uint256",
          "name": "endsAt",
          "type": "uint256"
        },
        {
          "internalType": "enum CrowdFunding.STATUS",
          "name": "status",
          "type": "uint8"
        },
        {
          "internalType": "uint256",
          "name": "totalRaised",
          "type": "uint256"
        }
      ],
      "stateMutability": "view",
      "type": "function"
    },
    {
      "inputs": [
        {
          "internalType": "uint256",
          "name": "campaignId",
          "type": "uint256"
        }
      ],
      "name": "contribute",
      "outputs": [],
      "stateMutability": "payable",
      "type": "function"
    },
    {
      "inputs": [
        {
          "internalType": "uint256",
          "name": "",
          "type": "uint256"
        },
        {
          "internalType": "address",
          "name": "",
          "type": "address"
        }
      ],
      "name": "contributions",
      "outputs": [
        {
          "internalType": "uint256",
          "name": "",
          "type": "uint256"
        }
      ],
      "stateMutability": "view",
      "type": "function"
    },
    {
      "inputs": [
        {
          "internalType": "string",
          "name": "title",
          "type": "string"
        },
        {
          "internalType": "string",
          "name": "description",
          "type": "string"
        },
        {
          "internalType": "string",
          "name": "imageURI",
          "type": "string"
        },
        {
          "internalType": "uint256",
          "name": "goal",
          "type": "uint256"
        },
        {
          "internalType": "uint256",
          "name": "endsAt",
          "type": "uint256"
        }
      ],
      "name": "createCampaign",
      "outputs": [],
      "stateMutability": "nonpayable",
      "type": "function"
    },
    {
      "inputs": [],
      "name": "currentTime",
      "outputs": [
        {
          "internalType": "uint256",
          "name": "",
          "type": "uint256"
        }
      ],
      "stateMutability": "view",
      "type": "function"
    },
    {
      "inputs": [
        {
          "internalType": "uint256",
          "name": "campaignId",
          "type": "uint256"
        }
      ],
      "name": "deleteCampaign",
      "outputs": [],
      "stateMutability": "nonpayable",
      "type": "function"
    },
    {
      "inputs": [],
      "name": "getAllCampaigns",
      "outputs": [
        {
          "components": [
            {
              "internalType": "uint256",
              "name": "id",
              "type": "uint256"
            },
            {
              "internalType": "address",
              "name": "creator",
              "type": "address"
            },
            {
              "internalType": "string",
              "name": "title",
              "type": "string"
            },
            {
              "internalType": "string",
              "name": "description",
              "type": "string"
            },
            {
              "internalType": "string",
              "name": "imageURI",
              "type": "string"
            },
            {
              "internalType": "uint256",
              "name": "goal",
              "type": "uint256"
            },
            {
              "internalType": "uint256",
              "name": "startsAt",
              "type": "uint256"
            },
            {
              "internalType": "uint256",
              "name": "endsAt",
              "type": "uint256"
            },
            {
              "internalType": "enum CrowdFunding.STATUS",
              "name": "status",
              "type": "uint8"
            },
            {
              "internalType": "uint256",
              "name": "totalRaised",
              "type": "uint256"
            }
          ],
          "internalType": "struct CrowdFunding.Campaign[]",
          "name": "",
          "type": "tuple[]"
        }
      ],
      "stateMutability": "view",
      "type": "function"
    },
    {
      "inputs": [],
      "name": "getLatestCampaigns",
      "outputs": [
        {
          "components": [
            {
              "internalType": "uint256",
              "name": "id",
              "type": "uint256"
            },
            {
              "internalType": "address",
              "name": "creator",
              "type": "address"
            },
            {
              "internalType": "string",
              "name": "title",
              "type": "string"
            },
            {
              "internalType": "string",
              "name": "description",
              "type": "string"
            },
            {
              "internalType": "string",
              "name": "imageURI",
              "type": "string"
            },
            {
              "internalType": "uint256",
              "name": "goal",
              "type": "uint256"
            },
            {
              "internalType": "uint256",
              "name": "startsAt",
              "type": "uint256"
            },
            {
              "internalType": "uint256",
              "name": "endsAt",
              "type": "uint256"
            },
            {
              "internalType": "enum CrowdFunding.STATUS",
              "name": "status",
              "type": "uint8"
            },
            {
              "internalType": "uint256",
              "name": "totalRaised",
              "type": "uint256"
            }
          ],
          "internalType": "struct CrowdFunding.Campaign[]",
          "name": "latest",
          "type": "tuple[]"
        }
      ],
      "stateMutability": "view",
      "type": "function"
    },
    {
      "inputs": [],
      "name": "owner",
      "outputs": [
        {
          "internalType": "address",
          "name": "",
          "type": "address"
        }
      ],
      "stateMutability": "view",
      "type": "function"
    },
    {
      "inputs": [
        {
          "internalType": "uint256",
          "name": "campaignId",
          "type": "uint256"
        }
      ],
      "name": "withdraw",
      "outputs": [],
      "stateMutability": "nonpayable",
      "type": "function"
    }
  ],
  "bytecode": "0x60a0604052600160005534801561001557600080fd5b503373ffffffffffffffffffffffffffffffffffffffff1660808173ffffffffffffffffffffffffffffffffffffffff1681525050608051612b036100656000396000610d200152612b036000f3fe6080604052600436106100915760003560e01c80638da5cb5b116100595780638da5cb5b14610196578063980f2e66146101c1578063b4d40af1146101ea578063c1cbbca714610215578063d18e81b31461023157610091565b8063141961bc146100965780632e1a7d4d146100dc5780633d891f5914610105578063759701931461014257806386cdf6041461016b575b600080fd5b3480156100a257600080fd5b506100bd60048036038101906100b89190611951565b61025c565b6040516100d39a99989796959493929190611ad5565b60405180910390f35b3480156100e857600080fd5b5061010360048036038101906100fe9190611951565b610485565b005b34801561011157600080fd5b5061012c60048036038101906101279190611bb2565b610886565b6040516101399190611bf2565b60405180910390f35b34801561014e57600080fd5b5061016960048036038101906101649190611951565b6108ab565b005b34801561017757600080fd5b50610180610a45565b60405161018d9190611e2e565b60405180910390f35b3480156101a257600080fd5b506101ab610d1e565b6040516101b89190611e50565b60405180910390f35b3480156101cd57600080fd5b506101e860048036038101906101e39190611ed0565b610d42565b005b3480156101f657600080fd5b506101ff611158565b60405161020c9190611e2e565b60405180910390f35b61022f600480360381019061022a9190611951565b6114cf565b005b34801561023d57600080fd5b5061024661188e565b6040516102539190611bf2565b60405180910390f35b6002818154811061026c57600080fd5b90600052602060002090600a02016000915090508060000154908060010160009054906101000a900473ffffffffffffffffffffffffffffffffffffffff16908060020180546102bb90611fdb565b80601f01602080910402602001604051908101604052809291908181526020018280546102e790611fdb565b80156103345780601f1061030957610100808354040283529160200191610334565b820191906000526020600020905b81548152906001019060200180831161031757829003601f168201915b50505050509080600301805461034990611fdb565b80601f016020809104026020016040519081016040528092919081815260200182805461037590611fdb565b80156103c25780601f10610397576101008083540402835291602001916103c2565b820191906000526020600020905b8154815290600101906020018083116103a557829003601f168201915b5050505050908060040180546103d790611fdb565b80601f016020809104026020016040519081016040528092919081815260200182805461040390611fdb565b80156104505780601f1061042557610100808354040283529160200191610450565b820191906000526020600020905b81548152906001019060200180831161043357829003601f168201915b5050505050908060050154908060060154908060070154908060080160009054906101000a900460ff1690806009015490508a565b600160009054906101000a900460ff16156104d5576040517f08c379a00000000000000000000000000000000000000000000000000000000081526004016104cc90612058565b60405180910390fd5b60018060006101000a81548160ff0219169083151502179055506000600260018361050091906120a7565b81548110610511576105106120db565b5b90600052602060002090600a0201905060006003600084815260200190815260200160002060003373ffffffffffffffffffffffffffffffffffffffff1673ffffffffffffffffffffffffffffffffffffffff168152602001908152602001600020549050600081116105b9576040517f08c379a00000000000000000000000000000000000000000000000000000000081526004016105b090612156565b60405180910390fd5b600260038111156105cd576105cc611a5e565b5b8260080160009054906101000a900460ff1660038111156105f1576105f0611a5e565b5b0361068d578160010160009054906101000a900473ffffffffffffffffffffffffffffffffffffffff1673ffffffffffffffffffffffffffffffffffffffff163373ffffffffffffffffffffffffffffffffffffffff1614610688576040517f08c379a000000000000000000000000000000000000000000000000000000000815260040161067f906121c2565b60405180910390fd5b610714565b600160038111156106a1576106a0611a5e565b5b8260080160009054906101000a900460ff1660038111156106c5576106c4611a5e565b5b14806106d45750816007015442115b610713576040517f08c379a000000000000000000000000000000000000000000000000000000000815260040161070a9061222e565b60405180910390fd5b5b60006003600085815260200190815260200160002060003373ffffffffffffffffffffffffffffffffffffffff1673ffffffffffffffffffffffffffffffffffffffff1681526020019081526020016000208190555060003373ffffffffffffffffffffffffffffffffffffffff16826040516107909061227f565b60006040518083038185875af1925050503d80600081146107cd576040519150601f19603f3d011682016040523d82523d6000602084013e6107d2565b606091505b5050905080610816576040517f08c379a000000000000000000000000000000000000000000000000000000000815260040161080d906122e0565b60405180910390fd5b3373ffffffffffffffffffffffffffffffffffffffff16847ff440aec6b52895984d061d622e6edeba6210f7c3e059be920663140c084560d78460405161085d9190611bf2565b60405180910390a35050506000600160006101000a81548160ff02191690831515021790555050565b6003602052816000526040600020602052806000526040600020600091509150505481565b600060026001836108bc91906120a7565b815481106108cd576108cc6120db565b5b90600052602060002090600a020190508060010160009054906101000a900473ffffffffffffffffffffffffffffffffffffffff1673ffffffffffffffffffffffffffffffffffffffff163373ffffffffffffffffffffffffffffffffffffffff161461096f576040517f08c379a00000000000000000000000000000000000000000000000000000000081526004016109669061234c565b60405180910390fd5b6000600381111561098357610982611a5e565b5b8160080160009054906101000a900460ff1660038111156109a7576109a6611a5e565b5b146109e7576040517f08c379a00000000000000000000000000000000000000000000000000000000081526004016109de906123b8565b60405180910390fd5b60018160080160006101000a81548160ff02191690836003811115610a0f57610a0e611a5e565b5b0217905550817fa61e586bd6a065bde887af9ec4705829557488d3ccdea823ab66aafd7c3aa09960405160405180910390a25050565b60606002805480602002602001604051908101604052809291908181526020016000905b82821015610d1557838290600052602060002090600a020160405180610140016040529081600082015481526020016001820160009054906101000a900473ffffffffffffffffffffffffffffffffffffffff1673ffffffffffffffffffffffffffffffffffffffff1673ffffffffffffffffffffffffffffffffffffffff168152602001600282018054610afd90611fdb565b80601f0160208091040260200160405190810160405280929190818152602001828054610b2990611fdb565b8015610b765780601f10610b4b57610100808354040283529160200191610b76565b820191906000526020600020905b815481529060010190602001808311610b5957829003601f168201915b50505050508152602001600382018054610b8f90611fdb565b80601f0160208091040260200160405190810160405280929190818152602001828054610bbb90611fdb565b8015610c085780601f10610bdd57610100808354040283529160200191610c08565b820191906000526020600020905b815481529060010190602001808311610beb57829003601f168201915b50505050508152602001600482018054610c2190611fdb565b80601f0160208091040260200160405190810160405280929190818152602001828054610c4d90611fdb565b8015610c9a5780601f10610c6f57610100808354040283529160200191610c9a565b820191906000526020600020905b815481529060010190602001808311610c7d57829003601f168201915b505050505081526020016005820154815260200160068201548152602001600782015481526020016008820160009054906101000a900460ff166003811115610ce657610ce5611a5e565b5b6003811115610cf857610cf7611a5e565b5b815260200160098201548152505081526020019060010190610a69565b50505050905090565b7f000000000000000000000000000000000000000000000000000000000000000081565b60008888905011610d88576040517f08c379a0000000000000000000000000000000000000000000000000000000008152600401610d7f90612424565b60405180910390fd5b60008686905011610dce576040517f08c379a0000000000000000000000000000000000000000000000000000000008152600401610dc590612490565b60405180910390fd5b60008484905011610e14576040517f08c379a0000000000000000000000000000000000000000000000000000000008152600401610e0b906124fc565b60405180910390fd5b60008211610e57576040517f08c379a0000000000000000000000000000000000000000000000000000000008152600401610e4e90612568565b60405180910390fd5b428111610e99576040517f08c379a0000000000000000000000000000000000000000000000000000000008152600401610e90906125d4565b60405180910390fd5b600260405180610140016040528060005481526020013373ffffffffffffffffffffffffffffffffffffffff1681526020018a8a8080601f016020809104026020016040519081016040528093929190818152602001838380828437600081840152601f19601f82011690508083019250505050505050815260200188888080601f016020809104026020016040519081016040528093929190818152602001838380828437600081840152601f19601f82011690508083019250505050505050815260200186868080601f016020809104026020016040519081016040528093929190818152602001838380828437600081840152601f19601f82011690508083019250505050505050815260200184815260200142815260200183815260200160006003811115610fcf57610fce611a5e565b5b8152602001600081525090806001815401808255809150506001900390600052602060002090600a02016000909190919091506000820151816000015560208201518160010160006101000a81548173ffffffffffffffffffffffffffffffffffffffff021916908373ffffffffffffffffffffffffffffffffffffffff160217905550604082015181600201908161106891906127cf565b50606082015181600301908161107e91906127cf565b50608082015181600401908161109491906127cf565b5060a0820151816005015560c0820151816006015560e082015181600701556101008201518160080160006101000a81548160ff021916908360038111156110df576110de611a5e565b5b0217905550610120820151816009015550503373ffffffffffffffffffffffffffffffffffffffff166000547f633109eec20320eded000fc1e2634211aa7e92ba3f5b15faf6dcdafca05094e460405160405180910390a3600080815480929190611149906128a1565b91905055505050505050505050565b6060600060028054905090506000600482116111745781611177565b60045b90508067ffffffffffffffff811115611193576111926125f4565b5b6040519080825280602002602001820160405280156111cc57816020015b6111b9611896565b8152602001906001900390816111b15790505b50925060005b818110156114c9576002816001856111ea91906120a7565b6111f491906120a7565b81548110611205576112046120db565b5b90600052602060002090600a020160405180610140016040529081600082015481526020016001820160009054906101000a900473ffffffffffffffffffffffffffffffffffffffff1673ffffffffffffffffffffffffffffffffffffffff1673ffffffffffffffffffffffffffffffffffffffff16815260200160028201805461128f90611fdb565b80601f01602080910402602001604051908101604052809291908181526020018280546112bb90611fdb565b80156113085780601f106112dd57610100808354040283529160200191611308565b820191906000526020600020905b8154815290600101906020018083116112eb57829003601f168201915b5050505050815260200160038201805461132190611fdb565b80601f016020809104026020016040519081016040528092919081815260200182805461134d90611fdb565b801561139a5780601f1061136f5761010080835404028352916020019161139a565b820191906000526020600020905b81548152906001019060200180831161137d57829003601f168201915b505050505081526020016004820180546113b390611fdb565b80601f01602080910402602001604051908101604052809291908181526020018280546113df90611fdb565b801561142c5780601f106114015761010080835404028352916020019161142c565b820191906000526020600020905b81548152906001019060200180831161140f57829003601f168201915b505050505081526020016005820154815260200160068201548152602001600782015481526020016008820160009054906101000a900460ff16600381111561147857611477611a5e565b5b600381111561148a57611489611a5e565b5b81526020016009820154815250508482815181106114ab576114aa6120db565b5b602002602001018190525080806114c1906128a1565b9150506111d2565b50505090565b600160009054906101000a900460ff161561151f576040517f08c379a000000000000000000000000000000000000000000000000000000000815260040161151690612058565b60405180910390fd5b60018060006101000a81548160ff0219169083151502179055506000600260018361154a91906120a7565b8154811061155b5761155a6120db565b5b90600052602060002090600a020190506000600381111561157f5761157e611a5e565b5b8160080160009054906101000a900460ff1660038111156115a3576115a2611a5e565b5b146115e3576040517f08c379a00000000000000000000000000000000000000000000000000000000081526004016115da90612935565b60405180910390fd5b80600701544210611629576040517f08c379a0000000000000000000000000000000000000000000000000000000008152600401611620906129a1565b60405180910390fd5b6000341161166c576040517f08c379a000000000000000000000000000000000000000000000000000000000815260040161166390612a0d565b60405180910390fd5b60008160090154826005015461168291906120a7565b905060008134116116935734611695565b815b9050600081346116a591906120a7565b9050818460090160008282546116bb9190612a2d565b92505081905550816003600087815260200190815260200160002060003373ffffffffffffffffffffffffffffffffffffffff1673ffffffffffffffffffffffffffffffffffffffff16815260200190815260200160002060008282546117229190612a2d565b9250508190555083600501548460090154106117665760028460080160006101000a81548160ff021916908360038111156117605761175f611a5e565b5b02179055505b600081111561181d5760003373ffffffffffffffffffffffffffffffffffffffff16826040516117959061227f565b60006040518083038185875af1925050503d80600081146117d2576040519150601f19603f3d011682016040523d82523d6000602084013e6117d7565b606091505b505090508061181b576040517f08c379a000000000000000000000000000000000000000000000000000000000815260040161181290612aad565b60405180910390fd5b505b3373ffffffffffffffffffffffffffffffffffffffff16857f0a4a91237423e0a1766a761c7cb029311d8b95d6b1b81db1b949a70c98b4e08e846040516118649190611bf2565b60405180910390a3505050506000600160006101000a81548160ff02191690831515021790555050565b600042905090565b60405180610140016040528060008152602001600073ffffffffffffffffffffffffffffffffffffffff1681526020016060815260200160608152602001606081526020016000815260200160008152602001600081526020016000600381111561190457611903611a5e565b5b8152602001600081525090565b600080fd5b600080fd5b6000819050919050565b61192e8161191b565b811461193957600080fd5b50565b60008135905061194b81611925565b92915050565b60006020828403121561196757611966611911565b5b60006119758482850161193c565b91505092915050565b6119878161191b565b82525050565b600073ffffffffffffffffffffffffffffffffffffffff82169050919050565b60006119b88261198d565b9050919050565b6119c8816119ad565b82525050565b600081519050919050565b600082825260208201905092915050565b60005b83811015611a085780820151818401526020810190506119ed565b60008484015250505050565b6000601f19601f8301169050919050565b6000611a30826119ce565b611a3a81856119d9565b9350611a4a8185602086016119ea565b611a5381611a14565b840191505092915050565b7f4e487b7100000000000000000000000000000000000000000000000000000000600052602160045260246000fd5b60048110611a9e57611a9d611a5e565b5b50565b6000819050611aaf82611a8d565b919050565b6000611abf82611aa1565b9050919050565b611acf81611ab4565b82525050565b600061014082019050611aeb600083018d61197e565b611af8602083018c6119bf565b8181036040830152611b0a818b611a25565b90508181036060830152611b1e818a611a25565b90508181036080830152611b328189611a25565b9050611b4160a083018861197e565b611b4e60c083018761197e565b611b5b60e083018661197e565b611b69610100830185611ac6565b611b7761012083018461197e565b9b9a5050505050505050505050565b611b8f816119ad565b8114611b9a57600080fd5b50565b600081359050611bac81611b86565b92915050565b60008060408385031215611bc957611bc8611911565b5b6000611bd78582860161193c565b9250506020611be885828601611b9d565b9150509250929050565b6000602082019050611c07600083018461197e565b92915050565b600081519050919050565b600082825260208201905092915050565b6000819050602082019050919050565b611c428161191b565b82525050565b611c51816119ad565b82525050565b600082825260208201905092915050565b6000611c73826119ce565b611c7d8185611c57565b9350611c8d8185602086016119ea565b611c9681611a14565b840191505092915050565b611caa81611ab4565b82525050565b600061014083016000830151611cc96000860182611c39565b506020830151611cdc6020860182611c48565b5060408301518482036040860152611cf48282611c68565b91505060608301518482036060860152611d0e8282611c68565b91505060808301518482036080860152611d288282611c68565b91505060a0830151611d3d60a0860182611c39565b5060c0830151611d5060c0860182611c39565b5060e0830151611d6360e0860182611c39565b50610100830151611d78610100860182611ca1565b50610120830151611d8d610120860182611c39565b508091505092915050565b6000611da48383611cb0565b905092915050565b6000602082019050919050565b6000611dc482611c0d565b611dce8185611c18565b935083602082028501611de085611c29565b8060005b85811015611e1c5784840389528151611dfd8582611d98565b9450611e0883611dac565b925060208a01995050600181019050611de4565b50829750879550505050505092915050565b60006020820190508181036000830152611e488184611db9565b905092915050565b6000602082019050611e6560008301846119bf565b92915050565b600080fd5b600080fd5b600080fd5b60008083601f840112611e9057611e8f611e6b565b5b8235905067ffffffffffffffff811115611ead57611eac611e70565b5b602083019150836001820283011115611ec957611ec8611e75565b5b9250929050565b60008060008060008060008060a0898b031215611ef057611eef611911565b5b600089013567ffffffffffffffff811115611f0e57611f0d611916565b5b611f1a8b828c01611e7a565b9850985050602089013567ffffffffffffffff811115611f3d57611f3c611916565b5b611f498b828c01611e7a565b9650965050604089013567ffffffffffffffff811115611f6c57611f6b611916565b5b611f788b828c01611e7a565b94509450506060611f8b8b828c0161193c565b9250506080611f9c8b828c0161193c565b9150509295985092959890939650565b7f4e487b7100000000000000000000000000000000000000000000000000000000600052602260045260246000fd5b60006002820490506001821680611ff357607f821691505b60208210810361200657612005611fac565b5b50919050565b7f5265656e7472616e637920626c6f636b65640000000000000000000000000000600082015250565b60006120426012836119d9565b915061204d8261200c565b602082019050919050565b6000602082019050818103600083015261207181612035565b9050919050565b7f4e487b7100000000000000000000000000000000000000000000000000000000600052601160045260246000fd5b60006120b28261191b565b91506120bd8361191b565b92508282039050818111156120d5576120d4612078565b5b92915050565b7f4e487b7100000000000000000000000000000000000000000000000000000000600052603260045260246000fd5b7f4e6f7468696e6720746f20776974686472617700000000000000000000000000600082015250565b60006121406013836119d9565b915061214b8261210a565b602082019050919050565b6000602082019050818103600083015261216f81612133565b9050919050565b7f4f6e6c792063726561746f720000000000000000000000000000000000000000600082015250565b60006121ac600c836119d9565b91506121b782612176565b602082019050919050565b600060208201905081810360008301526121db8161219f565b9050919050565b7f4e6f7420726566756e6461626c65000000000000000000000000000000000000600082015250565b6000612218600e836119d9565b9150612223826121e2565b602082019050919050565b600060208201905081810360008301526122478161220b565b9050919050565b600081905092915050565b50565b600061226960008361224e565b915061227482612259565b600082019050919050565b600061228a8261225c565b9150819050919050565b7f5769746864726177206661696c65640000000000000000000000000000000000600082015250565b60006122ca600f836119d9565b91506122d582612294565b602082019050919050565b600060208201905081810360008301526122f9816122bd565b9050919050565b7f4e6f742063726561746f72000000000000000000000000000000000000000000600082015250565b6000612336600b836119d9565b915061234182612300565b602082019050919050565b6000602082019050818103600083015261236581612329565b9050919050565b7f416c726561647920636c6f736564000000000000000000000000000000000000600082015250565b60006123a2600e836119d9565b91506123ad8261236c565b602082019050919050565b600060208201905081810360008301526123d181612395565b9050919050565b7f456d707479207469746c65000000000000000000000000000000000000000000600082015250565b600061240e600b836119d9565b9150612419826123d8565b602082019050919050565b6000602082019050818103600083015261243d81612401565b9050919050565b7f456d707479206465736372697074696f6e000000000000000000000000000000600082015250565b600061247a6011836119d9565b915061248582612444565b602082019050919050565b600060208201905081810360008301526124a98161246d565b9050919050565b7f456d70747920696d616765000000000000000000000000000000000000000000600082015250565b60006124e6600b836119d9565b91506124f1826124b0565b602082019050919050565b60006020820190508181036000830152612515816124d9565b9050919050565b7f496e76616c696420676f616c0000000000000000000000000000000000000000600082015250565b6000612552600c836119d9565b915061255d8261251c565b602082019050919050565b6000602082019050818103600083015261258181612545565b9050919050565b7f496e76616c696420656e642074696d6500000000000000000000000000000000600082015250565b60006125be6010836119d9565b91506125c982612588565b602082019050919050565b600060208201905081810360008301526125ed816125b1565b9050919050565b7f4e487b7100000000000000000000000000000000000000000000000000000000600052604160045260246000fd5b60008190508160005260206000209050919050565b60006020601f8301049050919050565b600082821b905092915050565b6000600883026126857fffffffffffffffffffffffffffffffffffffffffffffffffffffffffffffffff82612648565b61268f8683612648565b95508019841693508086168417925050509392505050565b6000819050919050565b60006126cc6126c76126c28461191b565b6126a7565b61191b565b9050919050565b6000819050919050565b6126e6836126b1565b6126fa6126f2826126d3565b848454612655565b825550505050565b600090565b61270f612702565b61271a8184846126dd565b505050565b5b8181101561273e57612733600082612707565b600181019050612720565b5050565b601f8211156127835761275481612623565b61275d84612638565b8101602085101561276c578190505b61278061277885612638565b83018261271f565b50505b505050565b600082821c905092915050565b60006127a660001984600802612788565b1980831691505092915050565b60006127bf8383612795565b9150826002028217905092915050565b6127d8826119ce565b67ffffffffffffffff8111156127f1576127f06125f4565b5b6127fb8254611fdb565b612806828285612742565b600060209050601f8311600181146128395760008415612827578287015190505b61283185826127b3565b865550612899565b601f19841661284786612623565b60005b8281101561286f5784890151825560018201915060208501945060208101905061284a565b8683101561288c5784890151612888601f891682612795565b8355505b6001600288020188555050505b505050505050565b60006128ac8261191b565b91507fffffffffffffffffffffffffffffffffffffffffffffffffffffffffffffffff82036128de576128dd612078565b5b600182019050919050565b7f43616d706169676e20696e616374697665000000000000000000000000000000600082015250565b600061291f6011836119d9565b915061292a826128e9565b602082019050919050565b6000602082019050818103600083015261294e81612912565b9050919050565b7f43616d706169676e20656e646564000000000000000000000000000000000000600082015250565b600061298b600e836119d9565b915061299682612955565b602082019050919050565b600060208201905081810360008301526129ba8161297e565b9050919050565b7f5a65726f20636f6e747269627574696f6e000000000000000000000000000000600082015250565b60006129f76011836119d9565b9150612a02826129c1565b602082019050919050565b60006020820190508181036000830152612a26816129ea565b9050919050565b6000612a388261191b565b9150612a438361191b565b9250828201905080821115612a5b57612a5a612078565b5b92915050565b7f526566756e64206661696c656400000000000000000000000000000000000000600082015250565b6000612a97600d836119d9565b9150612aa282612a61565b602082019050919050565b60006020820190508181036000830152612ac681612a8a565b905091905056fea264697066735822122068f32eee1c1b91ae03a838aa75cfc6e4e3fd7f4f0aaaae813e423d7437cc5e3964736f6c63430008140033",
  "linkReferences": {},
  "deployedLinkReferences": {}
}